{
  "contractName": "A",
  "abi": [
    {
      "inputs": [
        {
          "internalType": "address",
          "name": "",
          "type": "address"
        },
        {
          "internalType": "uint256",
          "name": "",
          "type": "uint256"
        }
      ],
      "name": "listmappingUser",
      "outputs": [
        {
          "internalType": "uint256",
          "name": "",
          "type": "uint256"
        }
      ],
      "stateMutability": "view",
      "type": "function"
    },
    {
      "inputs": [
        {
          "internalType": "address",
          "name": "",
          "type": "address"
        }
      ],
      "name": "no",
      "outputs": [
        {
          "internalType": "address",
          "name": "creator",
          "type": "address"
        },
        {
          "internalType": "uint256",
          "name": "ID",
          "type": "uint256"
        },
        {
          "internalType": "uint256",
          "name": "balance",
          "type": "uint256"
        }
      ],
      "stateMutability": "view",
      "type": "function"
    },
    {
      "inputs": [
        {
          "internalType": "address",
          "name": "",
          "type": "address"
        },
        {
          "internalType": "uint256",
          "name": "",
          "type": "uint256"
        }
      ],
      "name": "wagers",
      "outputs": [
        {
          "internalType": "address",
          "name": "creator",
          "type": "address"
        },
        {
          "internalType": "uint256",
          "name": "ID",
          "type": "uint256"
        },
        {
          "internalType": "bool",
          "name": "result",
          "type": "bool"
        },
        {
          "internalType": "uint256",
          "name": "yesBalance",
          "type": "uint256"
        },
        {
          "internalType": "uint256",
          "name": "noBalance",
          "type": "uint256"
        },
        {
          "internalType": "uint256",
          "name": "balance",
          "type": "uint256"
        }
      ],
      "stateMutability": "view",
      "type": "function"
    },
    {
      "inputs": [
        {
          "internalType": "address",
          "name": "",
          "type": "address"
        }
      ],
      "name": "yes",
      "outputs": [
        {
          "internalType": "address",
          "name": "creator",
          "type": "address"
        },
        {
          "internalType": "uint256",
          "name": "ID",
          "type": "uint256"
        },
        {
          "internalType": "uint256",
          "name": "balance",
          "type": "uint256"
        }
      ],
      "stateMutability": "view",
      "type": "function"
    },
    {
      "inputs": [],
      "name": "createWager",
      "outputs": [],
      "stateMutability": "nonpayable",
      "type": "function"
    },
    {
      "inputs": [
        {
          "internalType": "address",
          "name": "user",
          "type": "address"
        },
        {
          "internalType": "uint256",
          "name": "id",
          "type": "uint256"
        },
        {
          "internalType": "bool",
          "name": "result",
          "type": "bool"
        }
      ],
      "name": "deposit",
      "outputs": [],
      "stateMutability": "payable",
      "type": "function"
    },
    {
      "inputs": [
        {
          "internalType": "address",
          "name": "user",
          "type": "address"
        },
        {
          "internalType": "uint256",
          "name": "id",
          "type": "uint256"
        }
      ],
      "name": "withdraw",
      "outputs": [],
      "stateMutability": "nonpayable",
      "type": "function"
    },
    {
      "inputs": [
        {
          "internalType": "bool",
          "name": "result",
          "type": "bool"
        }
      ],
      "name": "oracle",
      "outputs": [],
      "stateMutability": "nonpayable",
      "type": "function"
    },
    {
      "inputs": [],
      "name": "array",
      "outputs": [
        {
          "internalType": "uint256",
          "name": "",
          "type": "uint256"
        }
      ],
      "stateMutability": "view",
      "type": "function"
    },
    {
      "inputs": [],
      "name": "getBankBalance",
      "outputs": [
        {
          "internalType": "uint256",
          "name": "",
          "type": "uint256"
        }
      ],
      "stateMutability": "view",
      "type": "function"
    }
  ],
  "bytecode": "0x608060405234801561001057600080fd5b50610ef5806100206000396000f3fe6080604052600436106100915760003560e01c80637b83b50b116100595780637b83b50b146101af57806383c2971f146101da578063878c10fa14610203578063b0ec2ae11461021a578063f3fef3a31461024557610091565b80633070a25e146100965780633edd1128146100d357806346c39e2a146100ef57806351ea91161461012e578063758119841461016d575b600080fd5b3480156100a257600080fd5b506100bd60048036038101906100b89190610b7b565b61026e565b6040516100ca9190610bca565b60405180910390f35b6100ed60048036038101906100e89190610c1d565b61029f565b005b3480156100fb57600080fd5b5061011660048036038101906101119190610c70565b6103d2565b60405161012593929190610cac565b60405180910390f35b34801561013a57600080fd5b5061015560048036038101906101509190610c70565b61041c565b60405161016493929190610cac565b60405180910390f35b34801561017957600080fd5b50610194600480360381019061018f9190610b7b565b610466565b6040516101a696959493929190610cf2565b60405180910390f35b3480156101bb57600080fd5b506101c46104dc565b6040516101d19190610bca565b60405180910390f35b3480156101e657600080fd5b5061020160048036038101906101fc9190610d53565b6104e4565b005b34801561020f57600080fd5b50610218610551565b005b34801561022657600080fd5b5061022f6106f2565b60405161023c9190610bca565b60405180910390f35b34801561025157600080fd5b5061026c60048036038101906102679190610b7b565b61073c565b005b6004602052816000526040600020818154811061028a57600080fd5b90600052602060002001600091509150505481565b60011515811515141561030a5734600160003373ffffffffffffffffffffffffffffffffffffffff1673ffffffffffffffffffffffffffffffffffffffff16815260200190815260200160002060020160008282546102fe9190610daf565b92505081905550610364565b34600260003373ffffffffffffffffffffffffffffffffffffffff1673ffffffffffffffffffffffffffffffffffffffff168152602001908152602001600020600201600082825461035c9190610daf565b925050819055505b346000808573ffffffffffffffffffffffffffffffffffffffff1673ffffffffffffffffffffffffffffffffffffffff168152602001908152602001600020600084815260200190815260200160002060070160008282546103c69190610daf565b92505081905550505050565b60026020528060005260406000206000915090508060000160009054906101000a900473ffffffffffffffffffffffffffffffffffffffff16908060010154908060020154905083565b60016020528060005260406000206000915090508060000160009054906101000a900473ffffffffffffffffffffffffffffffffffffffff16908060010154908060020154905083565b6000602052816000526040600020602052806000526040600020600091509150508060000160009054906101000a900473ffffffffffffffffffffffffffffffffffffffff16908060010154908060020160009054906101000a900460ff16908060030154908060040154908060070154905086565b600047905090565b806000803373ffffffffffffffffffffffffffffffffffffffff1673ffffffffffffffffffffffffffffffffffffffff168152602001908152602001600020600080815260200190815260200160002060020160006101000a81548160ff02191690831515021790555050565b600460003373ffffffffffffffffffffffffffffffffffffffff1673ffffffffffffffffffffffffffffffffffffffff16815260200190815260200160002080549050600381905550336000803373ffffffffffffffffffffffffffffffffffffffff1673ffffffffffffffffffffffffffffffffffffffff1681526020019081526020016000206000600354815260200190815260200160002060000160006101000a81548173ffffffffffffffffffffffffffffffffffffffff021916908373ffffffffffffffffffffffffffffffffffffffff1602179055506003546000803373ffffffffffffffffffffffffffffffffffffffff1673ffffffffffffffffffffffffffffffffffffffff1681526020019081526020016000206000600354815260200190815260200160002060010181905550600460003373ffffffffffffffffffffffffffffffffffffffff1673ffffffffffffffffffffffffffffffffffffffff1681526020019081526020016000206003549080600181540180825580915050600190039060005260206000200160009091909190915055565b6000600160003373ffffffffffffffffffffffffffffffffffffffff1673ffffffffffffffffffffffffffffffffffffffff16815260200190815260200160002060020154905090565b600115156000808473ffffffffffffffffffffffffffffffffffffffff1673ffffffffffffffffffffffffffffffffffffffff168152602001908152602001600020600083815260200190815260200160002060020160009054906101000a900460ff1615151415610945576000600160003373ffffffffffffffffffffffffffffffffffffffff1673ffffffffffffffffffffffffffffffffffffffff16815260200190815260200160002060020154116107f757600080fd5b60008060008473ffffffffffffffffffffffffffffffffffffffff1673ffffffffffffffffffffffffffffffffffffffff1681526020019081526020016000206000838152602001908152602001600020600701546000808573ffffffffffffffffffffffffffffffffffffffff1673ffffffffffffffffffffffffffffffffffffffff168152602001908152602001600020600084815260200190815260200160002060030154600160003373ffffffffffffffffffffffffffffffffffffffff1673ffffffffffffffffffffffffffffffffffffffff168152602001908152602001600020600201546108ec9190610e05565b6108f69190610e8e565b90503373ffffffffffffffffffffffffffffffffffffffff166108fc829081150290604051600060405180830381858888f1935050505015801561093e573d6000803e3d6000fd5b5050610ade565b6000600260003373ffffffffffffffffffffffffffffffffffffffff1673ffffffffffffffffffffffffffffffffffffffff168152602001908152602001600020600201541161099457600080fd5b60008060008473ffffffffffffffffffffffffffffffffffffffff1673ffffffffffffffffffffffffffffffffffffffff168152602001908152602001600020600083815260200190815260200160002060040154600260003373ffffffffffffffffffffffffffffffffffffffff1673ffffffffffffffffffffffffffffffffffffffff168152602001908152602001600020600201546000808673ffffffffffffffffffffffffffffffffffffffff1673ffffffffffffffffffffffffffffffffffffffff168152602001908152602001600020600085815260200190815260200160002060070154610a899190610e05565b610a939190610e8e565b90503373ffffffffffffffffffffffffffffffffffffffff166108fc829081150290604051600060405180830381858888f19350505050158015610adb573d6000803e3d6000fd5b50505b5050565b600080fd5b600073ffffffffffffffffffffffffffffffffffffffff82169050919050565b6000610b1282610ae7565b9050919050565b610b2281610b07565b8114610b2d57600080fd5b50565b600081359050610b3f81610b19565b92915050565b6000819050919050565b610b5881610b45565b8114610b6357600080fd5b50565b600081359050610b7581610b4f565b92915050565b60008060408385031215610b9257610b91610ae2565b5b6000610ba085828601610b30565b9250506020610bb185828601610b66565b9150509250929050565b610bc481610b45565b82525050565b6000602082019050610bdf6000830184610bbb565b92915050565b60008115159050919050565b610bfa81610be5565b8114610c0557600080fd5b50565b600081359050610c1781610bf1565b92915050565b600080600060608486031215610c3657610c35610ae2565b5b6000610c4486828701610b30565b9350506020610c5586828701610b66565b9250506040610c6686828701610c08565b9150509250925092565b600060208284031215610c8657610c85610ae2565b5b6000610c9484828501610b30565b91505092915050565b610ca681610b07565b82525050565b6000606082019050610cc16000830186610c9d565b610cce6020830185610bbb565b610cdb6040830184610bbb565b949350505050565b610cec81610be5565b82525050565b600060c082019050610d076000830189610c9d565b610d146020830188610bbb565b610d216040830187610ce3565b610d2e6060830186610bbb565b610d3b6080830185610bbb565b610d4860a0830184610bbb565b979650505050505050565b600060208284031215610d6957610d68610ae2565b5b6000610d7784828501610c08565b91505092915050565b7f4e487b7100000000000000000000000000000000000000000000000000000000600052601160045260246000fd5b6000610dba82610b45565b9150610dc583610b45565b9250827fffffffffffffffffffffffffffffffffffffffffffffffffffffffffffffffff03821115610dfa57610df9610d80565b5b828201905092915050565b6000610e1082610b45565b9150610e1b83610b45565b9250817fffffffffffffffffffffffffffffffffffffffffffffffffffffffffffffffff0483118215151615610e5457610e53610d80565b5b828202905092915050565b7f4e487b7100000000000000000000000000000000000000000000000000000000600052601260045260246000fd5b6000610e9982610b45565b9150610ea483610b45565b925082610eb457610eb3610e5f565b5b82820490509291505056fea2646970667358221220032395ad4d6ae77ca7792aa569988f62a384a02e2bbe395c633c1fdcf20de05764736f6c634300080a0033",
  "immutableReferences": {},
  "source": "// SPDX-License-Identifier: MIT\npragma solidity >=0.7.0 <0.9.0;\n\ncontract A {\n\n\nstruct wager { \n\n    address creator;\n    uint ID;\n    bool result;\n\n    uint yesBalance;\n    uint noBalance;\n\n    address[] yes;\n    address[] no;\n    uint balance;\n\n}\n\n\nstruct YES {\n\n    address creator;\n    uint ID;\n    uint balance;\n\n}\n\n\nstruct NO {\n\n    address creator;\n    uint ID;\n    uint balance;\n\n}\n\n\nmapping(address => mapping(uint => wager)) public wagers;\nmapping(address => YES) public yes;\nmapping(address => NO) public no;\n\nuint private ID;\nmapping(address => uint[]) public listmappingUser;\n\n\nfunction createWager() public {\n\n    ID = listmappingUser[msg.sender].length;\n\n    wagers[msg.sender][ID].creator = msg.sender;\n    wagers[msg.sender][ID].ID = ID;\n\n    listmappingUser[msg.sender].push(ID);\n\n\n}\n\n\nfunction deposit(address user, uint id, bool result) payable public {\n\n    if (result == true) {\n        \n        yes[msg.sender].balance += msg.value;\n        \n    }\n\n    else {\n\n        no[msg.sender].balance += msg.value;\n    }\n\n    wagers[user][id].balance += msg.value;\n\n}\n\n\nfunction withdraw(address user, uint id) public { \n    \n\n    if (wagers[user][id].result == true) {\n\n        require(yes[msg.sender].balance > 0);\n\n        /* split according to percentage of deposit\n\n        // this function is currently failing but this is the idea.. \n\n        */\n\n\n        uint payment = (yes[msg.sender].balance * wagers[user][id].yesBalance) / wagers[user][id].balance;\n\n        payable(msg.sender).transfer(payment);\n\n    }\n\n    else {\n\n        require(no[msg.sender].balance > 0);\n\n        //payable(msg.sender).transfer(address(this).balance);\n\n        uint payment = (wagers[user][id].balance * no[msg.sender].balance) / wagers[user][id].noBalance;\n\n        payable(msg.sender).transfer(payment);\n\n    }\n\n}\n\n\n// dev tools\n    function oracle(bool result) public {\n\n        wagers[msg.sender][0].result = result;\n\n    }\n\n    \n    function array() public view virtual returns (uint) {\n        return yes[msg.sender].balance;\n    }\n\n    function getBankBalance() public view returns(uint){\n        return address(this).balance;\n    }\n\n}\n\n\n\n",
  "sourcePath": "/home/ubuntu/Desktop/dev/bettingContract/contracts/wager.sol",
  "compiler": {
    "name": "solc",
    "version": "0.8.10+commit.fc410830.Emscripten.clang"
  },
  "schemaVersion": "3.4.3",
  "updatedAt": "2021-12-08T14:34:46.118Z",
  "devdoc": {
    "kind": "dev",
    "methods": {},
    "version": 1
  },
  "userdoc": {
    "kind": "user",
    "methods": {},
    "version": 1
  }
}